{
  "_format": "hh-sol-artifact-1",
  "contractName": "WavePortal",
  "sourceName": "contracts/WavePortal.sol",
  "abi": [
    {
      "inputs": [],
      "stateMutability": "payable",
      "type": "constructor"
    },
    {
      "anonymous": false,
      "inputs": [
        {
          "indexed": true,
          "internalType": "address",
          "name": "from",
          "type": "address"
        },
        {
          "indexed": false,
          "internalType": "uint256",
          "name": "timestamp",
          "type": "uint256"
        },
        {
          "indexed": false,
          "internalType": "string",
          "name": "message",
          "type": "string"
        }
      ],
      "name": "NewWave",
      "type": "event"
    },
    {
      "inputs": [],
      "name": "getAllWaves",
      "outputs": [
        {
          "components": [
            {
              "internalType": "address",
              "name": "user",
              "type": "address"
            },
            {
              "internalType": "string",
              "name": "message",
              "type": "string"
            },
            {
              "internalType": "uint256",
              "name": "timestamp",
              "type": "uint256"
            }
          ],
          "internalType": "struct WavePortal.Wave[]",
          "name": "",
          "type": "tuple[]"
        }
      ],
      "stateMutability": "view",
      "type": "function"
    },
    {
      "inputs": [],
      "name": "getTotalWaves",
      "outputs": [
        {
          "internalType": "uint256",
          "name": "",
          "type": "uint256"
        }
      ],
      "stateMutability": "view",
      "type": "function"
    },
    {
      "inputs": [],
      "name": "getUserWaves",
      "outputs": [
        {
          "internalType": "uint256",
          "name": "",
          "type": "uint256"
        }
      ],
      "stateMutability": "view",
      "type": "function"
    },
    {
      "inputs": [
        {
          "internalType": "address",
          "name": "",
          "type": "address"
        }
      ],
      "name": "lastWavedAt",
      "outputs": [
        {
          "internalType": "uint256",
          "name": "",
          "type": "uint256"
        }
      ],
      "stateMutability": "view",
      "type": "function"
    },
    {
      "inputs": [
        {
          "internalType": "string",
          "name": "_message",
          "type": "string"
        }
      ],
      "name": "wave",
      "outputs": [],
      "stateMutability": "nonpayable",
      "type": "function"
    }
  ],
  "bytecode": "0x608060405262000033604051806060016040528060268152602001620016de602691396200005b60201b620007af1760201c565b60644442620000439190620001a8565b6200004f919062000245565b600181905550620002ec565b620000fb8160405160240162000072919062000168565b6040516020818303038152906040527f41304fac000000000000000000000000000000000000000000000000000000007bffffffffffffffffffffffffffffffffffffffffffffffffffffffff19166020820180517bffffffffffffffffffffffffffffffffffffffffffffffffffffffff8381831617835250505050620000fe60201b60201c565b50565b60008151905060006a636f6e736f6c652e6c6f679050602083016000808483855afa5050505050565b600062000134826200018c565b62000140818562000197565b9350620001528185602086016200020f565b6200015d81620002db565b840191505092915050565b6000602082019050818103600083015262000184818462000127565b905092915050565b600081519050919050565b600082825260208201905092915050565b6000620001b58262000205565b9150620001c28362000205565b9250827fffffffffffffffffffffffffffffffffffffffffffffffffffffffffffffffff03821115620001fa57620001f96200027d565b5b828201905092915050565b6000819050919050565b60005b838110156200022f57808201518184015260208101905062000212565b838111156200023f576000848401525b50505050565b6000620002528262000205565b91506200025f8362000205565b925082620002725762000271620002ac565b5b828206905092915050565b7f4e487b7100000000000000000000000000000000000000000000000000000000600052601160045260246000fd5b7f4e487b7100000000000000000000000000000000000000000000000000000000600052601260045260246000fd5b6000601f19601f8301169050919050565b6113e280620002fc6000396000f3fe608060405234801561001057600080fd5b50600436106100575760003560e01c8063449d46c01461005c5780634ad88b38146100785780639a2cdc0814610096578063a42a4663146100b4578063bd43a908146100e4575b600080fd5b61007660048036038101906100719190610b91565b610102565b005b610080610535565b60405161008d9190610f3c565b60405180910390f35b61009e6105fb565b6040516100ab9190610f3c565b60405180910390f35b6100ce60048036038101906100c99190610b68565b610646565b6040516100db9190610f3c565b60405180910390f35b6100ec61065e565b6040516100f99190610dfa565b60405180910390f35b42601e600360003373ffffffffffffffffffffffffffffffffffffffff1673ffffffffffffffffffffffffffffffffffffffff1681526020019081526020016000205461014f919061104e565b1061018f576040517f08c379a000000000000000000000000000000000000000000000000000000000815260040161018690610f1c565b60405180910390fd5b42600360003373ffffffffffffffffffffffffffffffffffffffff1673ffffffffffffffffffffffffffffffffffffffff1681526020019081526020016000208190555060016000808282546101e5919061104e565b925050819055506001600260003373ffffffffffffffffffffffffffffffffffffffff1673ffffffffffffffffffffffffffffffffffffffff168152602001908152602001600020600082825461023c919061104e565b925050819055506102a560405180606001604052806022815260200161138b6022913933600260003373ffffffffffffffffffffffffffffffffffffffff1673ffffffffffffffffffffffffffffffffffffffff16815260200190815260200160002054610848565b600460405180606001604052803373ffffffffffffffffffffffffffffffffffffffff16815260200183815260200142815250908060018154018082558091505060019003906000526020600020906003020160009091909190915060008201518160000160006101000a81548173ffffffffffffffffffffffffffffffffffffffff021916908373ffffffffffffffffffffffffffffffffffffffff1602179055506020820151816001019080519060200190610364929190610a48565b5060408201518160020155505060646001544244610382919061104e565b61038c919061104e565b6103969190611185565b600181905550600a600154116104e2576103e56040518060400160405280600781526020017f257320776f6e2100000000000000000000000000000000000000000000000000815250336108e7565b6000655af3107a4000905047811115610433576040517f08c379a000000000000000000000000000000000000000000000000000000000815260040161042a90610edc565b60405180910390fd5b60003373ffffffffffffffffffffffffffffffffffffffff168260405161045990610de5565b60006040518083038185875af1925050503d8060008114610496576040519150601f19603f3d011682016040523d82523d6000602084013e61049b565b606091505b50509050806104df576040517f08c379a00000000000000000000000000000000000000000000000000000000081526004016104d690610efc565b60405180910390fd5b50505b3373ffffffffffffffffffffffffffffffffffffffff167f5f7e16dc676677766a70e9c5628aa6c54ddb8b6e5188e2ae1e1f17f1ffbea716428360405161052a929190610f57565b60405180910390a250565b60006105b66040518060400160405280601e81526020017f54686520616464726573732025732c20776176652025642074696d657321000081525033600260003373ffffffffffffffffffffffffffffffffffffffff1673ffffffffffffffffffffffffffffffffffffffff16815260200190815260200160002054610848565b600260003373ffffffffffffffffffffffffffffffffffffffff1673ffffffffffffffffffffffffffffffffffffffff16815260200190815260200160002054905090565b600061063e6040518060400160405280601781526020017f5765206861766520256420746f74616c20776176657321000000000000000000815250600054610983565b600054905090565b60036020528060005260406000206000915090505481565b60606004805480602002602001604051908101604052809291908181526020016000905b828210156107a657838290600052602060002090600302016040518060600160405290816000820160009054906101000a900473ffffffffffffffffffffffffffffffffffffffff1673ffffffffffffffffffffffffffffffffffffffff1673ffffffffffffffffffffffffffffffffffffffff16815260200160018201805461070b90611122565b80601f016020809104026020016040519081016040528092919081815260200182805461073790611122565b80156107845780601f1061075957610100808354040283529160200191610784565b820191906000526020600020905b81548152906001019060200180831161076757829003601f168201915b5050505050815260200160028201548152505081526020019060010190610682565b50505050905090565b610845816040516024016107c39190610e1c565b6040516020818303038152906040527f41304fac000000000000000000000000000000000000000000000000000000007bffffffffffffffffffffffffffffffffffffffffffffffffffffffff19166020820180517bffffffffffffffffffffffffffffffffffffffffffffffffffffffff8381831617835250505050610a1f565b50565b6108e283838360405160240161086093929190610e6e565b6040516020818303038152906040527f07c81217000000000000000000000000000000000000000000000000000000007bffffffffffffffffffffffffffffffffffffffffffffffffffffffff19166020820180517bffffffffffffffffffffffffffffffffffffffffffffffffffffffff8381831617835250505050610a1f565b505050565b61097f82826040516024016108fd929190610e3e565b6040516020818303038152906040527f319af333000000000000000000000000000000000000000000000000000000007bffffffffffffffffffffffffffffffffffffffffffffffffffffffff19166020820180517bffffffffffffffffffffffffffffffffffffffffffffffffffffffff8381831617835250505050610a1f565b5050565b610a1b8282604051602401610999929190610eac565b6040516020818303038152906040527f9710a9d0000000000000000000000000000000000000000000000000000000007bffffffffffffffffffffffffffffffffffffffffffffffffffffffff19166020820180517bffffffffffffffffffffffffffffffffffffffffffffffffffffffff8381831617835250505050610a1f565b5050565b60008151905060006a636f6e736f6c652e6c6f679050602083016000808483855afa5050505050565b828054610a5490611122565b90600052602060002090601f016020900481019282610a765760008555610abd565b82601f10610a8f57805160ff1916838001178555610abd565b82800160010185558215610abd579182015b82811115610abc578251825591602001919060010190610aa1565b5b509050610aca9190610ace565b5090565b5b80821115610ae7576000816000905550600101610acf565b5090565b6000610afe610af984610fac565b610f87565b905082815260208101848484011115610b1657600080fd5b610b218482856110e0565b509392505050565b600081359050610b3881611373565b92915050565b600082601f830112610b4f57600080fd5b8135610b5f848260208601610aeb565b91505092915050565b600060208284031215610b7a57600080fd5b6000610b8884828501610b29565b91505092915050565b600060208284031215610ba357600080fd5b600082013567ffffffffffffffff811115610bbd57600080fd5b610bc984828501610b3e565b91505092915050565b6000610bde8383610d77565b905092915050565b610bef816110a4565b82525050565b610bfe816110a4565b82525050565b6000610c0f82610fed565b610c198185611010565b935083602082028501610c2b85610fdd565b8060005b85811015610c675784840389528151610c488582610bd2565b9450610c5383611003565b925060208a01995050600181019050610c2f565b50829750879550505050505092915050565b6000610c8482610ff8565b610c8e818561102c565b9350610c9e8185602086016110ef565b610ca781611272565b840191505092915050565b6000610cbd82610ff8565b610cc7818561103d565b9350610cd78185602086016110ef565b610ce081611272565b840191505092915050565b6000610cf860348361103d565b9150610d0382611283565b604082019050919050565b6000610d1b60278361103d565b9150610d26826112d2565b604082019050919050565b6000610d3e60298361103d565b9150610d4982611321565b604082019050919050565b6000610d61600083611021565b9150610d6c82611370565b600082019050919050565b6000606083016000830151610d8f6000860182610be6565b5060208301518482036020860152610da78282610c79565b9150506040830151610dbc6040860182610dc7565b508091505092915050565b610dd0816110d6565b82525050565b610ddf816110d6565b82525050565b6000610df082610d54565b9150819050919050565b60006020820190508181036000830152610e148184610c04565b905092915050565b60006020820190508181036000830152610e368184610cb2565b905092915050565b60006040820190508181036000830152610e588185610cb2565b9050610e676020830184610bf5565b9392505050565b60006060820190508181036000830152610e888186610cb2565b9050610e976020830185610bf5565b610ea46040830184610dd6565b949350505050565b60006040820190508181036000830152610ec68185610cb2565b9050610ed56020830184610dd6565b9392505050565b60006020820190508181036000830152610ef581610ceb565b9050919050565b60006020820190508181036000830152610f1581610d0e565b9050919050565b60006020820190508181036000830152610f3581610d31565b9050919050565b6000602082019050610f516000830184610dd6565b92915050565b6000604082019050610f6c6000830185610dd6565b8181036020830152610f7e8184610cb2565b90509392505050565b6000610f91610fa2565b9050610f9d8282611154565b919050565b6000604051905090565b600067ffffffffffffffff821115610fc757610fc6611243565b5b610fd082611272565b9050602081019050919050565b6000819050602082019050919050565b600081519050919050565b600081519050919050565b6000602082019050919050565b600082825260208201905092915050565b600081905092915050565b600082825260208201905092915050565b600082825260208201905092915050565b6000611059826110d6565b9150611064836110d6565b9250827fffffffffffffffffffffffffffffffffffffffffffffffffffffffffffffffff03821115611099576110986111b6565b5b828201905092915050565b60006110af826110b6565b9050919050565b600073ffffffffffffffffffffffffffffffffffffffff82169050919050565b6000819050919050565b82818337600083830152505050565b60005b8381101561110d5780820151818401526020810190506110f2565b8381111561111c576000848401525b50505050565b6000600282049050600182168061113a57607f821691505b6020821081141561114e5761114d611214565b5b50919050565b61115d82611272565b810181811067ffffffffffffffff8211171561117c5761117b611243565b5b80604052505050565b6000611190826110d6565b915061119b836110d6565b9250826111ab576111aa6111e5565b5b828206905092915050565b7f4e487b7100000000000000000000000000000000000000000000000000000000600052601160045260246000fd5b7f4e487b7100000000000000000000000000000000000000000000000000000000600052601260045260246000fd5b7f4e487b7100000000000000000000000000000000000000000000000000000000600052602260045260246000fd5b7f4e487b7100000000000000000000000000000000000000000000000000000000600052604160045260246000fd5b6000601f19601f8301169050919050565b7f547279696e6720746f207769746864726177206d6f7265206d6f6e657920746860008201527f616e2074686520636f6e7472616374206861732e000000000000000000000000602082015250565b7f4661696c656420746f207769746864726177206d6f6e65792066726f6d20636f60008201527f6e74726163742e00000000000000000000000000000000000000000000000000602082015250565b7f4d7573742077616974203330207365636f6e6473206265666f7265207761766960008201527f6e6720616761696e2e0000000000000000000000000000000000000000000000602082015250565b50565b61137c816110a4565b811461138757600080fd5b5056fe25732068617320776176656420616e642069742773207468652025642074696d6521a264697066735822122053cc0320b79068c5ab4d9dea0f194c7164ed6780c56a0f3df778089787c35da264736f6c63430008040033596f20796f2c20417267656e74696e612063727970746f20706f77657220697320686572652e",
  "linkReferences": {},
  "deployedLinkReferences": {}
}